{
  "contractName": "Auction",
  "abi": [
    {
      "constant": true,
      "inputs": [],
      "name": "sausageName",
      "outputs": [
        {
          "name": "",
          "type": "string"
        }
      ],
      "payable": false,
      "stateMutability": "view",
      "type": "function",
      "signature": "0x21663f34"
    },
    {
      "constant": true,
      "inputs": [],
      "name": "auctionSecondsLeft",
      "outputs": [
        {
          "name": "",
          "type": "uint256"
        }
      ],
      "payable": false,
      "stateMutability": "view",
      "type": "function",
      "signature": "0x32056775"
    },
    {
      "constant": true,
      "inputs": [],
      "name": "manager",
      "outputs": [
        {
          "name": "",
          "type": "address"
        }
      ],
      "payable": false,
      "stateMutability": "view",
      "type": "function",
      "signature": "0x481c6a75"
    },
    {
      "constant": true,
      "inputs": [],
      "name": "latestBid",
      "outputs": [
        {
          "name": "",
          "type": "uint256"
        }
      ],
      "payable": false,
      "stateMutability": "view",
      "type": "function",
      "signature": "0x5dd672ec"
    },
    {
      "constant": true,
      "inputs": [],
      "name": "latestBidder",
      "outputs": [
        {
          "name": "",
          "type": "address"
        }
      ],
      "payable": false,
      "stateMutability": "view",
      "type": "function",
      "signature": "0x67a884e5"
    },
    {
      "constant": true,
      "inputs": [],
      "name": "uniqueID",
      "outputs": [
        {
          "name": "",
          "type": "uint256"
        }
      ],
      "payable": false,
      "stateMutability": "view",
      "type": "function",
      "signature": "0x8bc533e9"
    },
    {
      "constant": true,
      "inputs": [],
      "name": "auctionLive",
      "outputs": [
        {
          "name": "",
          "type": "bool"
        }
      ],
      "payable": false,
      "stateMutability": "view",
      "type": "function",
      "signature": "0xc83ab5df"
    },
    {
      "constant": true,
      "inputs": [],
      "name": "erc721TokenAddr",
      "outputs": [
        {
          "name": "",
          "type": "address"
        }
      ],
      "payable": false,
      "stateMutability": "view",
      "type": "function",
      "signature": "0xfb8fa989"
    },
    {
      "inputs": [
        {
          "name": "_manager",
          "type": "address"
        },
        {
          "name": "id",
          "type": "uint256"
        },
        {
          "name": "name",
          "type": "string"
        },
        {
          "name": "_erc721TokenAddr",
          "type": "address"
        }
      ],
      "payable": false,
      "stateMutability": "nonpayable",
      "type": "constructor",
      "signature": "constructor"
    },
    {
      "anonymous": false,
      "inputs": [
        {
          "indexed": false,
          "name": "_latestBidder",
          "type": "address"
        },
        {
          "indexed": false,
          "name": "_amount",
          "type": "uint256"
        },
        {
          "indexed": false,
          "name": "_timeLeft",
          "type": "uint256"
        },
        {
          "indexed": false,
          "name": "_name",
          "type": "string"
        }
      ],
      "name": "LogNewBid",
      "type": "event",
      "signature": "0x6bec58654fd2390ef89daaf60e711b1296d2e17f4c70b625c02bc509c7189791"
    },
    {
      "anonymous": false,
      "inputs": [
        {
          "indexed": false,
          "name": "_name",
          "type": "string"
        },
        {
          "indexed": false,
          "name": "_tokenAddress",
          "type": "address"
        },
        {
          "indexed": false,
          "name": "_EndTime",
          "type": "uint256"
        },
        {
          "indexed": false,
          "name": "_uniqueID",
          "type": "uint256"
        }
      ],
      "name": "LogAuctionOpen",
      "type": "event",
      "signature": "0x913b68dd1a3d80c1bc9d1b437e9b3acaa426c4431d3fa4509e5108a6e9a0a944"
    },
    {
      "anonymous": false,
      "inputs": [
        {
          "indexed": false,
          "name": "_name",
          "type": "string"
        },
        {
          "indexed": false,
          "name": "_tokenAddress",
          "type": "address"
        },
        {
          "indexed": false,
          "name": "_timeFinished",
          "type": "uint256"
        },
        {
          "indexed": false,
          "name": "_uniqueID",
          "type": "uint256"
        },
        {
          "indexed": false,
          "name": "_winner",
          "type": "address"
        },
        {
          "indexed": false,
          "name": "_finalBid",
          "type": "uint256"
        }
      ],
      "name": "LogAuctionClosed",
      "type": "event",
      "signature": "0x1132104b302d657dbb900a696ac99ea784c70211a5dcb9f8666cbb2dd1664735"
    },
    {
      "constant": false,
      "inputs": [
        {
          "name": "auctionSeconds",
          "type": "uint256"
        }
      ],
      "name": "startAuction",
      "outputs": [],
      "payable": false,
      "stateMutability": "nonpayable",
      "type": "function",
      "signature": "0x065de74c"
    },
    {
      "constant": false,
      "inputs": [],
      "name": "bid",
      "outputs": [],
      "payable": true,
      "stateMutability": "payable",
      "type": "function",
      "signature": "0x1998aeef"
    },
    {
      "constant": false,
      "inputs": [],
      "name": "winnerWithdraw",
      "outputs": [],
      "payable": false,
      "stateMutability": "nonpayable",
      "type": "function",
      "signature": "0xe10b650b"
    }
  ],
  "bytecode": "0x608060405234801561001057600080fd5b50604051610f91380380610f9183398101806040528101908080519060200190929190805190602001909291908051820192919060200180519060200190929190505050836000806101000a81548173ffffffffffffffffffffffffffffffffffffffff021916908373ffffffffffffffffffffffffffffffffffffffff16021790555080600460006101000a81548173ffffffffffffffffffffffffffffffffffffffff021916908373ffffffffffffffffffffffffffffffffffffffff1602179055508260058190555081600790805190602001906100f29291906100fc565b50505050506101a1565b828054600181600116156101000203166002900490600052602060002090601f016020900481019282601f1061013d57805160ff191683800117855561016b565b8280016001018555821561016b579182015b8281111561016a57825182559160200191906001019061014f565b5b509050610178919061017c565b5090565b61019e91905b8082111561019a576000816000905550600101610182565b5090565b90565b610de1806101b06000396000f3006080604052600436106100af576000357c0100000000000000000000000000000000000000000000000000000000900463ffffffff168063065de74c146100b45780631998aeef146100e157806321663f34146100eb578063320567751461017b578063481c6a75146101a65780635dd672ec146101fd57806367a884e5146102285780638bc533e91461027f578063c83ab5df146102aa578063e10b650b146102d9578063fb8fa989146102f0575b600080fd5b3480156100c057600080fd5b506100df60048036038101908080359060200190929190505050610347565b005b6100e9610556565b005b3480156100f757600080fd5b50610100610896565b6040518080602001828103825283818151815260200191508051906020019080838360005b83811015610140578082015181840152602081019050610125565b50505050905090810190601f16801561016d5780820380516001836020036101000a031916815260200191505b509250505060405180910390f35b34801561018757600080fd5b50610190610934565b6040518082815260200191505060405180910390f35b3480156101b257600080fd5b506101bb61093a565b604051808273ffffffffffffffffffffffffffffffffffffffff1673ffffffffffffffffffffffffffffffffffffffff16815260200191505060405180910390f35b34801561020957600080fd5b5061021261095f565b6040518082815260200191505060405180910390f35b34801561023457600080fd5b5061023d610965565b604051808273ffffffffffffffffffffffffffffffffffffffff1673ffffffffffffffffffffffffffffffffffffffff16815260200191505060405180910390f35b34801561028b57600080fd5b5061029461098b565b6040518082815260200191505060405180910390f35b3480156102b657600080fd5b506102bf610991565b604051808215151515815260200191505060405180910390f35b3480156102e557600080fd5b506102ee6109a4565b005b3480156102fc57600080fd5b50610305610d8f565b604051808273ffffffffffffffffffffffffffffffffffffffff1673ffffffffffffffffffffffffffffffffffffffff16815260200191505060405180910390f35b6000809054906101000a900473ffffffffffffffffffffffffffffffffffffffff1673ffffffffffffffffffffffffffffffffffffffff163373ffffffffffffffffffffffffffffffffffffffff1614151561040b576040517f08c379a000000000000000000000000000000000000000000000000000000000815260040180806020018281038252601d8152602001807f4d7573742062652061756374696f6e206f776e657220746f2063616c6c00000081525060200191505060405180910390fd5b4281016003819055506001600660006101000a81548160ff0219169083151502179055507f913b68dd1a3d80c1bc9d1b437e9b3acaa426c4431d3fa4509e5108a6e9a0a9446007600460009054906101000a900473ffffffffffffffffffffffffffffffffffffffff1660035460055460405180806020018573ffffffffffffffffffffffffffffffffffffffff1673ffffffffffffffffffffffffffffffffffffffff1681526020018481526020018381526020018281038252868181546001816001161561010002031660029004815260200191508054600181600116156101000203166002900480156105425780601f1061051757610100808354040283529160200191610542565b820191906000526020600020905b81548152906001019060200180831161052557829003601f168201915b50509550505050505060405180910390a150565b426003541115156105cf576040517f08c379a00000000000000000000000000000000000000000000000000000000081526004018080602001828103825260148152602001807f41756374696f6e206d757374206265206c69766500000000000000000000000081525060200191505060405180910390fd5b6001543411151561066e576040517f08c379a00000000000000000000000000000000000000000000000000000000081526004018080602001828103825260238152602001807f426964206d757374206265206c6172676572207468616e2063757272656e742081526020017f626964000000000000000000000000000000000000000000000000000000000081525060400191505060405180910390fd5b6000600260009054906101000a900473ffffffffffffffffffffffffffffffffffffffff1673ffffffffffffffffffffffffffffffffffffffff1614151561071c57600260009054906101000a900473ffffffffffffffffffffffffffffffffffffffff1673ffffffffffffffffffffffffffffffffffffffff166108fc6001549081150290604051600060405180830381858888f1935050505015801561071a573d6000803e3d6000fd5b505b33600260006101000a81548173ffffffffffffffffffffffffffffffffffffffff021916908373ffffffffffffffffffffffffffffffffffffffff16021790555034600181905550600a600354016003819055507f6bec58654fd2390ef89daaf60e711b1296d2e17f4c70b625c02bc509c7189791600260009054906101000a900473ffffffffffffffffffffffffffffffffffffffff166001546003546007604051808573ffffffffffffffffffffffffffffffffffffffff1673ffffffffffffffffffffffffffffffffffffffff168152602001848152602001838152602001806020018281038252838181546001816001161561010002031660029004815260200191508054600181600116156101000203166002900480156108835780601f1061085857610100808354040283529160200191610883565b820191906000526020600020905b81548152906001019060200180831161086657829003601f168201915b50509550505050505060405180910390a1565b60078054600181600116156101000203166002900480601f01602080910402602001604051908101604052809291908181526020018280546001816001161561010002031660029004801561092c5780601f106109015761010080835404028352916020019161092c565b820191906000526020600020905b81548152906001019060200180831161090f57829003601f168201915b505050505081565b60035481565b6000809054906101000a900473ffffffffffffffffffffffffffffffffffffffff1681565b60015481565b600260009054906101000a900473ffffffffffffffffffffffffffffffffffffffff1681565b60055481565b600660009054906101000a900460ff1681565b600042600354101515610a1f576040517f08c379a00000000000000000000000000000000000000000000000000000000081526004018080602001828103825260138152602001807f41756374696f6e206973206e6f74206f7665720000000000000000000000000081525060200191505060405180910390fd5b60011515600660009054906101000a900460ff161515141515610ad0576040517f08c379a000000000000000000000000000000000000000000000000000000000815260040180806020018281038252602e8152602001807f596f75206d7573742073746172742061756374696f6e206265666f726520796f81526020017f752063616e20776974686472617700000000000000000000000000000000000081525060400191505060405180910390fd5b600460009054906101000a900473ffffffffffffffffffffffffffffffffffffffff1690508073ffffffffffffffffffffffffffffffffffffffff166323b872dd30600260009054906101000a900473ffffffffffffffffffffffffffffffffffffffff166005546040518463ffffffff167c0100000000000000000000000000000000000000000000000000000000028152600401808473ffffffffffffffffffffffffffffffffffffffff1673ffffffffffffffffffffffffffffffffffffffff1681526020018373ffffffffffffffffffffffffffffffffffffffff1673ffffffffffffffffffffffffffffffffffffffff1681526020018281526020019350505050600060405180830381600087803b158015610bf057600080fd5b505af1158015610c04573d6000803e3d6000fd5b505050507f1132104b302d657dbb900a696ac99ea784c70211a5dcb9f8666cbb2dd16647356007600460009054906101000a900473ffffffffffffffffffffffffffffffffffffffff16600354600554600260009054906101000a900473ffffffffffffffffffffffffffffffffffffffff1660015460405180806020018773ffffffffffffffffffffffffffffffffffffffff1673ffffffffffffffffffffffffffffffffffffffff1681526020018681526020018581526020018473ffffffffffffffffffffffffffffffffffffffff1673ffffffffffffffffffffffffffffffffffffffff168152602001838152602001828103825288818154600181600116156101000203166002900481526020019150805460018160011615610100020316600290048015610d795780601f10610d4e57610100808354040283529160200191610d79565b820191906000526020600020905b815481529060010190602001808311610d5c57829003601f168201915b505097505050505050505060405180910390a150565b600460009054906101000a900473ffffffffffffffffffffffffffffffffffffffff16815600a165627a7a72305820c8124df19ef24e7aae6f94ce0ab909bebae71facf035af19a5daa2ab36df61c60029",
  "source": "pragma solidity ^0.4.24;\n\nimport \"./SausageTokens.sol\";\n\n// Steps\n  // THIS CONTRACT:    create the auction contract for the specific token (constructor id value)\n  // SAUSAGE CONTRACT: do the transfer of the sausage to this contract i.e mintUniqueTokenTo()\n  // THIS CONTRACT:    call startAuction()\n  // then start bidding\n\n\n//TODO: Who actually withdraws the ether ? The manager of the Auction contract has no way to withdraw their ether! Its stuck in the auction contract\n\ncontract Auction {\n    address public manager;\n    uint256 public latestBid;\n    address public latestBidder;\n    uint public auctionSecondsLeft;\n    address public erc721TokenAddr;\n    uint256 public uniqueID;\n    bool public auctionLive;\n    string public sausageName;\n  \n    constructor(address _manager, uint256 id, string name, address _erc721TokenAddr) public \n    {\n        manager = _manager;\n        erc721TokenAddr = _erc721TokenAddr;\n        uniqueID = id;\n        sausageName = name;\n    }\n\n    event LogNewBid(\n        address _latestBidder,\n        uint256 _amount,\n        uint256 _timeLeft,\n        string  _name\n    );\n\n    event LogAuctionOpen(\n        string _name, //CURRY = currywurst , GOLD = goldwurst , etc. \n        address _tokenAddress,\n        uint256 _EndTime,\n        uint256 _uniqueID\n\n    );\n\n    event LogAuctionClosed(\n        string _name, //CURRY = currywurst , GOLD = goldwurst , etc. \n        address _tokenAddress,\n        uint256 _timeFinished,\n        uint256 _uniqueID,  \n        address _winner,\n        uint256 _finalBid\n    );\n \n    function startAuction(uint auctionSeconds) public restricted {\n        auctionSecondsLeft = auctionSeconds + now;\n        auctionLive = true;\n\n        emit LogAuctionOpen(sausageName, erc721TokenAddr, auctionSecondsLeft, uniqueID);\n    }\n\n    function bid() public payable {\n        require(auctionSecondsLeft > now, \"Auction must be live\");\n        require(msg.value > latestBid, \"Bid must be larger than current bid\");\n\n        if (latestBidder != 0x0) {\n            latestBidder.transfer(latestBid);\n        }\n\n        latestBidder = msg.sender;\n        latestBid = msg.value;\n\n        //TODO: Would be nice if we could make a more dynamic bidding app, that actually lets users interact with in. This just adds 10sec. very basic \n        auctionSecondsLeft = auctionSecondsLeft + 10;\n        emit LogNewBid(latestBidder, latestBid, auctionSecondsLeft, sausageName);\n\n    }\n\n    // Can only be called when the auction has ended \n    function winnerWithdraw() public {\n        require(auctionSecondsLeft < now, \"Auction is not over\");\n        require(auctionLive == true, \"You must start auction before you can withdraw\");\n        SausageTokens st = SausageTokens(erc721TokenAddr);\n\n        //TODO: Conifrm this works\n        st.transferFrom(this, latestBidder, uniqueID);\n\n        emit LogAuctionClosed(sausageName, erc721TokenAddr, auctionSecondsLeft, uniqueID, latestBidder, latestBid);\n\n    }\n \n    modifier restricted() {\n        require(msg.sender == manager, \"Must be auction owner to call\");\n        _;\n    }\n}",
  "sourcePath": "/Users/davidkajpust/coding-no-icloud-backup/thegraph/new-sausage/bitsausage/solidity/contracts/Auction.sol",
  "compiler": {
    "name": "solc",
    "version": "0.4.24+commit.e67f0147.Emscripten.clang"
  },
  "schemaVersion": "3.0.0-beta.0",
  "updatedAt": "2018-10-04T17:40:34.196Z"
}