{
  "contractName": "Auction",
  "abi": [
    {
      "constant": true,
      "inputs": [],
      "name": "sausageName",
      "outputs": [
        {
          "name": "",
          "type": "string"
        }
      ],
      "payable": false,
      "stateMutability": "view",
      "type": "function",
      "signature": "0x21663f34"
    },
    {
      "constant": true,
      "inputs": [],
      "name": "auctionSecondsLeft",
      "outputs": [
        {
          "name": "",
          "type": "uint256"
        }
      ],
      "payable": false,
      "stateMutability": "view",
      "type": "function",
      "signature": "0x32056775"
    },
    {
      "constant": true,
      "inputs": [],
      "name": "manager",
      "outputs": [
        {
          "name": "",
          "type": "address"
        }
      ],
      "payable": false,
      "stateMutability": "view",
      "type": "function",
      "signature": "0x481c6a75"
    },
    {
      "constant": true,
      "inputs": [],
      "name": "latestBid",
      "outputs": [
        {
          "name": "",
          "type": "uint256"
        }
      ],
      "payable": false,
      "stateMutability": "view",
      "type": "function",
      "signature": "0x5dd672ec"
    },
    {
      "constant": true,
      "inputs": [],
      "name": "latestBidder",
      "outputs": [
        {
          "name": "",
          "type": "address"
        }
      ],
      "payable": false,
      "stateMutability": "view",
      "type": "function",
      "signature": "0x67a884e5"
    },
    {
      "constant": true,
      "inputs": [],
      "name": "uniqueID",
      "outputs": [
        {
          "name": "",
          "type": "uint256"
        }
      ],
      "payable": false,
      "stateMutability": "view",
      "type": "function",
      "signature": "0x8bc533e9"
    },
    {
      "constant": true,
      "inputs": [],
      "name": "auctionLive",
      "outputs": [
        {
          "name": "",
          "type": "bool"
        }
      ],
      "payable": false,
      "stateMutability": "view",
      "type": "function",
      "signature": "0xc83ab5df"
    },
    {
      "constant": true,
      "inputs": [],
      "name": "erc721TokenAddr",
      "outputs": [
        {
          "name": "",
          "type": "address"
        }
      ],
      "payable": false,
      "stateMutability": "view",
      "type": "function",
      "signature": "0xfb8fa989"
    },
    {
      "inputs": [
        {
          "name": "_manager",
          "type": "address"
        },
        {
          "name": "id",
          "type": "uint256"
        },
        {
          "name": "name",
          "type": "string"
        }
      ],
      "payable": false,
      "stateMutability": "nonpayable",
      "type": "constructor",
      "signature": "constructor"
    },
    {
      "anonymous": false,
      "inputs": [
        {
          "indexed": false,
          "name": "_latestBidder",
          "type": "address"
        },
        {
          "indexed": false,
          "name": "_amount",
          "type": "uint256"
        },
        {
          "indexed": false,
          "name": "_timeLeft",
          "type": "uint256"
        },
        {
          "indexed": false,
          "name": "_name",
          "type": "string"
        }
      ],
      "name": "LogNewBid",
      "type": "event",
      "signature": "0x6bec58654fd2390ef89daaf60e711b1296d2e17f4c70b625c02bc509c7189791"
    },
    {
      "anonymous": false,
      "inputs": [
        {
          "indexed": false,
          "name": "_name",
          "type": "string"
        },
        {
          "indexed": false,
          "name": "_tokenAddress",
          "type": "address"
        },
        {
          "indexed": false,
          "name": "_EndTime",
          "type": "uint256"
        },
        {
          "indexed": false,
          "name": "_uniqueID",
          "type": "uint256"
        }
      ],
      "name": "LogAuctionOpen",
      "type": "event",
      "signature": "0x913b68dd1a3d80c1bc9d1b437e9b3acaa426c4431d3fa4509e5108a6e9a0a944"
    },
    {
      "anonymous": false,
      "inputs": [
        {
          "indexed": false,
          "name": "_name",
          "type": "string"
        },
        {
          "indexed": false,
          "name": "_tokenAddress",
          "type": "address"
        },
        {
          "indexed": false,
          "name": "_timeFinished",
          "type": "uint256"
        },
        {
          "indexed": false,
          "name": "_uniqueID",
          "type": "uint256"
        },
        {
          "indexed": false,
          "name": "_winner",
          "type": "address"
        },
        {
          "indexed": false,
          "name": "_finalBid",
          "type": "uint256"
        }
      ],
      "name": "LogAuctionClosed",
      "type": "event",
      "signature": "0x1132104b302d657dbb900a696ac99ea784c70211a5dcb9f8666cbb2dd1664735"
    },
    {
      "constant": false,
      "inputs": [
        {
          "name": "auctionSeconds",
          "type": "uint256"
        }
      ],
      "name": "startAuction",
      "outputs": [],
      "payable": false,
      "stateMutability": "nonpayable",
      "type": "function",
      "signature": "0x065de74c"
    },
    {
      "constant": false,
      "inputs": [],
      "name": "bid",
      "outputs": [],
      "payable": true,
      "stateMutability": "payable",
      "type": "function",
      "signature": "0x1998aeef"
    },
    {
      "constant": false,
      "inputs": [],
      "name": "winnerWithdraw",
      "outputs": [],
      "payable": false,
      "stateMutability": "nonpayable",
      "type": "function",
      "signature": "0xe10b650b"
    },
    {
      "constant": true,
      "inputs": [],
      "name": "checkContract",
      "outputs": [
        {
          "name": "result",
          "type": "address"
        }
      ],
      "payable": false,
      "stateMutability": "view",
      "type": "function",
      "signature": "0x338116b0"
    }
  ],
  "bytecode": "0x608060405234801561001057600080fd5b506040516110d33803806110d3833981018060405281019080805190602001909291908051906020019092919080518201929190505050826000806101000a81548173ffffffffffffffffffffffffffffffffffffffff021916908373ffffffffffffffffffffffffffffffffffffffff16021790555073bf8c02b22ae2bd5d2f3f4775ad365dd97232d305600460006101000a81548173ffffffffffffffffffffffffffffffffffffffff021916908373ffffffffffffffffffffffffffffffffffffffff1602179055508160058190555080600790805190602001906100f9929190610102565b505050506101a7565b828054600181600116156101000203166002900490600052602060002090601f016020900481019282601f1061014357805160ff1916838001178555610171565b82800160010185558215610171579182015b82811115610170578251825591602001919060010190610155565b5b50905061017e9190610182565b5090565b6101a491905b808211156101a0576000816000905550600101610188565b5090565b90565b610f1d806101b66000396000f3006080604052600436106100ba576000357c0100000000000000000000000000000000000000000000000000000000900463ffffffff168063065de74c146100bf5780631998aeef146100ec57806321663f34146100f65780633205677514610186578063338116b0146101b1578063481c6a75146102085780635dd672ec1461025f57806367a884e51461028a5780638bc533e9146102e1578063c83ab5df1461030c578063e10b650b1461033b578063fb8fa98914610352575b600080fd5b3480156100cb57600080fd5b506100ea600480360381019080803590602001909291905050506103a9565b005b6100f46105b8565b005b34801561010257600080fd5b5061010b6108f8565b6040518080602001828103825283818151815260200191508051906020019080838360005b8381101561014b578082015181840152602081019050610130565b50505050905090810190601f1680156101785780820380516001836020036101000a031916815260200191505b509250505060405180910390f35b34801561019257600080fd5b5061019b610996565b6040518082815260200191505060405180910390f35b3480156101bd57600080fd5b506101c661099c565b604051808273ffffffffffffffffffffffffffffffffffffffff1673ffffffffffffffffffffffffffffffffffffffff16815260200191505060405180910390f35b34801561021457600080fd5b5061021d610a76565b604051808273ffffffffffffffffffffffffffffffffffffffff1673ffffffffffffffffffffffffffffffffffffffff16815260200191505060405180910390f35b34801561026b57600080fd5b50610274610a9b565b6040518082815260200191505060405180910390f35b34801561029657600080fd5b5061029f610aa1565b604051808273ffffffffffffffffffffffffffffffffffffffff1673ffffffffffffffffffffffffffffffffffffffff16815260200191505060405180910390f35b3480156102ed57600080fd5b506102f6610ac7565b6040518082815260200191505060405180910390f35b34801561031857600080fd5b50610321610acd565b604051808215151515815260200191505060405180910390f35b34801561034757600080fd5b50610350610ae0565b005b34801561035e57600080fd5b50610367610ecb565b604051808273ffffffffffffffffffffffffffffffffffffffff1673ffffffffffffffffffffffffffffffffffffffff16815260200191505060405180910390f35b6000809054906101000a900473ffffffffffffffffffffffffffffffffffffffff1673ffffffffffffffffffffffffffffffffffffffff163373ffffffffffffffffffffffffffffffffffffffff1614151561046d576040517f08c379a000000000000000000000000000000000000000000000000000000000815260040180806020018281038252601d8152602001807f4d7573742062652061756374696f6e206f776e657220746f2063616c6c00000081525060200191505060405180910390fd5b4281016003819055506001600660006101000a81548160ff0219169083151502179055507f913b68dd1a3d80c1bc9d1b437e9b3acaa426c4431d3fa4509e5108a6e9a0a9446007600460009054906101000a900473ffffffffffffffffffffffffffffffffffffffff1660035460055460405180806020018573ffffffffffffffffffffffffffffffffffffffff1673ffffffffffffffffffffffffffffffffffffffff1681526020018481526020018381526020018281038252868181546001816001161561010002031660029004815260200191508054600181600116156101000203166002900480156105a45780601f10610579576101008083540402835291602001916105a4565b820191906000526020600020905b81548152906001019060200180831161058757829003601f168201915b50509550505050505060405180910390a150565b42600354111515610631576040517f08c379a00000000000000000000000000000000000000000000000000000000081526004018080602001828103825260148152602001807f41756374696f6e206d757374206265206c69766500000000000000000000000081525060200191505060405180910390fd5b600154341115156106d0576040517f08c379a00000000000000000000000000000000000000000000000000000000081526004018080602001828103825260238152602001807f426964206d757374206265206c6172676572207468616e2063757272656e742081526020017f626964000000000000000000000000000000000000000000000000000000000081525060400191505060405180910390fd5b6000600260009054906101000a900473ffffffffffffffffffffffffffffffffffffffff1673ffffffffffffffffffffffffffffffffffffffff1614151561077e57600260009054906101000a900473ffffffffffffffffffffffffffffffffffffffff1673ffffffffffffffffffffffffffffffffffffffff166108fc6001549081150290604051600060405180830381858888f1935050505015801561077c573d6000803e3d6000fd5b505b33600260006101000a81548173ffffffffffffffffffffffffffffffffffffffff021916908373ffffffffffffffffffffffffffffffffffffffff16021790555034600181905550600a600354016003819055507f6bec58654fd2390ef89daaf60e711b1296d2e17f4c70b625c02bc509c7189791600260009054906101000a900473ffffffffffffffffffffffffffffffffffffffff166001546003546007604051808573ffffffffffffffffffffffffffffffffffffffff1673ffffffffffffffffffffffffffffffffffffffff168152602001848152602001838152602001806020018281038252838181546001816001161561010002031660029004815260200191508054600181600116156101000203166002900480156108e55780601f106108ba576101008083540402835291602001916108e5565b820191906000526020600020905b8154815290600101906020018083116108c857829003601f168201915b50509550505050505060405180910390a1565b60078054600181600116156101000203166002900480601f01602080910402602001604051908101604052809291908181526020018280546001816001161561010002031660029004801561098e5780601f106109635761010080835404028352916020019161098e565b820191906000526020600020905b81548152906001019060200180831161097157829003601f168201915b505050505081565b60035481565b600080600460009054906101000a900473ffffffffffffffffffffffffffffffffffffffff1690508073ffffffffffffffffffffffffffffffffffffffff16636352211e6104d26040518263ffffffff167c010000000000000000000000000000000000000000000000000000000002815260040180828152602001915050602060405180830381600087803b158015610a3557600080fd5b505af1158015610a49573d6000803e3d6000fd5b505050506040513d6020811015610a5f57600080fd5b810190808051906020019092919050505091505090565b6000809054906101000a900473ffffffffffffffffffffffffffffffffffffffff1681565b60015481565b600260009054906101000a900473ffffffffffffffffffffffffffffffffffffffff1681565b60055481565b600660009054906101000a900460ff1681565b600042600354101515610b5b576040517f08c379a00000000000000000000000000000000000000000000000000000000081526004018080602001828103825260138152602001807f41756374696f6e206973206e6f74206f7665720000000000000000000000000081525060200191505060405180910390fd5b60011515600660009054906101000a900460ff161515141515610c0c576040517f08c379a000000000000000000000000000000000000000000000000000000000815260040180806020018281038252602e8152602001807f596f75206d7573742073746172742061756374696f6e206265666f726520796f81526020017f752063616e20776974686472617700000000000000000000000000000000000081525060400191505060405180910390fd5b600460009054906101000a900473ffffffffffffffffffffffffffffffffffffffff1690508073ffffffffffffffffffffffffffffffffffffffff166323b872dd30600260009054906101000a900473ffffffffffffffffffffffffffffffffffffffff166005546040518463ffffffff167c0100000000000000000000000000000000000000000000000000000000028152600401808473ffffffffffffffffffffffffffffffffffffffff1673ffffffffffffffffffffffffffffffffffffffff1681526020018373ffffffffffffffffffffffffffffffffffffffff1673ffffffffffffffffffffffffffffffffffffffff1681526020018281526020019350505050600060405180830381600087803b158015610d2c57600080fd5b505af1158015610d40573d6000803e3d6000fd5b505050507f1132104b302d657dbb900a696ac99ea784c70211a5dcb9f8666cbb2dd16647356007600460009054906101000a900473ffffffffffffffffffffffffffffffffffffffff16600354600554600260009054906101000a900473ffffffffffffffffffffffffffffffffffffffff1660015460405180806020018773ffffffffffffffffffffffffffffffffffffffff1673ffffffffffffffffffffffffffffffffffffffff1681526020018681526020018581526020018473ffffffffffffffffffffffffffffffffffffffff1673ffffffffffffffffffffffffffffffffffffffff168152602001838152602001828103825288818154600181600116156101000203166002900481526020019150805460018160011615610100020316600290048015610eb55780601f10610e8a57610100808354040283529160200191610eb5565b820191906000526020600020905b815481529060010190602001808311610e9857829003601f168201915b505097505050505050505060405180910390a150565b600460009054906101000a900473ffffffffffffffffffffffffffffffffffffffff16815600a165627a7a723058207ef99e128233f4fd5c69715bdea3442fe27ec5126dd6d17761ee9e17692873f30029",
  "source": "pragma solidity ^0.4.24;\n\nimport \"./SausageTokens.sol\";\n\n\n// Steps\n  // THIS CONTRACT:    create the auction contract for the ID token \n  // SAUSAGE CONTRACT: do the transfer of the sausage to this contract\n  // THIS CONTRACT:    call startAuction\n\n  // then start bidding !\n\ncontract Auction {\n    address public manager;\n    uint256 public latestBid;\n    address public latestBidder;\n    uint public auctionSecondsLeft;\n    address public erc721TokenAddr;\n    uint256 public uniqueID;\n    bool public auctionLive;\n    // bool public auctionEnded;\n    string public sausageName;\n\n    // SausageTokens sc;\n  \n    constructor(address _manager, uint256 id, string name) public \n    // SausageTokens(msg.sender)\n    {\n        manager = _manager;\n        // sc = SausageTokens(msg.sender);\n        erc721TokenAddr = address(0xBf8C02b22ae2bd5D2f3F4775ad365dd97232d305);//msg.sender;\n        uniqueID = id;\n        sausageName = name;\n    }\n\n    event LogNewBid(\n        address _latestBidder,\n        uint256 _amount,\n        uint256 _timeLeft,\n        string  _name\n    );\n\n    event LogAuctionOpen(\n        string _name, //CURRY = currywurst , GOLD = goldwurst , etc. \n        address _tokenAddress,\n        uint256 _EndTime,\n        uint256 _uniqueID\n\n    );\n\n    event LogAuctionClosed(\n        string _name, //CURRY = currywurst , GOLD = goldwurst , etc. \n        address _tokenAddress,\n        uint256 _timeFinished,\n        uint256 _uniqueID,  \n        address _winner,\n        uint256 _finalBid\n    );\n \n    function startAuction(uint auctionSeconds) public restricted {\n        auctionSecondsLeft = auctionSeconds + now;\n        auctionLive = true;\n\n        emit LogAuctionOpen(sausageName, erc721TokenAddr, auctionSecondsLeft, uniqueID);\n    }\n \n\n  // so I will create the Auction contract, and I will grab the address, and then right away send the minted token to there\n  // the manager will then also call AUCTIONSTARt. then the token is locked\n  // people can then vote, and then once the final winner gets in and wins, this function unlocks\n    // this function has access to the SausageToken ABI, and it just does a transfer of the token to the winner addr with msg.sender\n\n    function bid() public payable {\n        require(auctionSecondsLeft > now, \"Auction must be live\");\n        require(msg.value > latestBid, \"Bid must be larger than current bid\");\n\n        // if (auctionSecondsLeft < now){\n        //     auctionEnded = true;\n        // }\n\n        // if (auctionEnded == false) {\n        if (latestBidder != 0x0) {\n            latestBidder.transfer(latestBid);\n        }\n\n        latestBidder = msg.sender;\n        latestBid = msg.value;\n        auctionSecondsLeft = auctionSecondsLeft + 10;\n        emit LogNewBid(latestBidder, latestBid, auctionSecondsLeft, sausageName);\n\n        // }\n\n    }\n\n  //unlocks when function is ended \n    function winnerWithdraw() public {\n        require(auctionSecondsLeft < now, \"Auction is not over\");\n        require(auctionLive == true, \"You must start auction before you can withdraw\");\n        SausageTokens st = SausageTokens(erc721TokenAddr);\n        st.transferFrom(this, latestBidder, uniqueID);\n\n        emit LogAuctionClosed(sausageName, erc721TokenAddr, auctionSecondsLeft, uniqueID, latestBidder, latestBid);\n\n    }\n\n    // function checkContract() public view returns (address result) {\n    //     SausageTokens st = SausageTokens(erc721TokenAddr);\n    //     return st.ownerOf(1234);\n\n    //     ERC20Basic token = ERC20Basic(_tokenContract);\n    //     uint256 balance = token.balanceOf(address(this));\n    //     require(token.transfer(owner, balance));\n\n    // }\n\n    function checkContract() public view returns (address result) {\n        SausageTokens st = SausageTokens(erc721TokenAddr);\n        return st.ownerOf(1234);\n    }\n\n \n    modifier restricted() {\n        require(msg.sender == manager, \"Must be auction owner to call\");\n        _;\n    }\n}",
  "sourcePath": "/Users/davidkajpust/coding-no-icloud-backup/sausage-erc721/wurstauction/solidity/contracts/Auction.sol",
  "compiler": {
    "name": "solc",
    "version": "0.4.24+commit.e67f0147.Emscripten.clang"
  },
  "schemaVersion": "3.0.0-beta.0",
  "updatedAt": "2018-09-09T00:03:14.959Z"
}